{
  "_format": "hh-sol-artifact-1",
  "contractName": "ExampleNfts",
  "sourceName": "contracts/ExampleNfts.sol",
  "abi": [
    {
      "inputs": [],
      "stateMutability": "nonpayable",
      "type": "constructor"
    },
    {
      "anonymous": false,
      "inputs": [
        {
          "indexed": true,
          "internalType": "address",
          "name": "owner",
          "type": "address"
        },
        {
          "indexed": true,
          "internalType": "address",
          "name": "approved",
          "type": "address"
        },
        {
          "indexed": true,
          "internalType": "uint256",
          "name": "tokenId",
          "type": "uint256"
        }
      ],
      "name": "Approval",
      "type": "event"
    },
    {
      "anonymous": false,
      "inputs": [
        {
          "indexed": true,
          "internalType": "address",
          "name": "owner",
          "type": "address"
        },
        {
          "indexed": true,
          "internalType": "address",
          "name": "operator",
          "type": "address"
        },
        {
          "indexed": false,
          "internalType": "bool",
          "name": "approved",
          "type": "bool"
        }
      ],
      "name": "ApprovalForAll",
      "type": "event"
    },
    {
      "anonymous": false,
      "inputs": [
        {
          "indexed": false,
          "internalType": "uint256",
          "name": "tokenId",
          "type": "uint256"
        },
        {
          "indexed": false,
          "internalType": "address",
          "name": "owner",
          "type": "address"
        }
      ],
      "name": "ExampleMinted",
      "type": "event"
    },
    {
      "anonymous": false,
      "inputs": [
        {
          "indexed": true,
          "internalType": "address",
          "name": "previousOwner",
          "type": "address"
        },
        {
          "indexed": true,
          "internalType": "address",
          "name": "newOwner",
          "type": "address"
        }
      ],
      "name": "OwnershipTransferred",
      "type": "event"
    },
    {
      "anonymous": false,
      "inputs": [
        {
          "indexed": true,
          "internalType": "address",
          "name": "from",
          "type": "address"
        },
        {
          "indexed": true,
          "internalType": "address",
          "name": "to",
          "type": "address"
        },
        {
          "indexed": true,
          "internalType": "uint256",
          "name": "tokenId",
          "type": "uint256"
        }
      ],
      "name": "Transfer",
      "type": "event"
    },
    {
      "inputs": [],
      "name": "MAX_TOKENS",
      "outputs": [
        {
          "internalType": "uint256",
          "name": "",
          "type": "uint256"
        }
      ],
      "stateMutability": "view",
      "type": "function"
    },
    {
      "inputs": [
        {
          "internalType": "address[]",
          "name": "addresses",
          "type": "address[]"
        }
      ],
      "name": "addToPresaleList",
      "outputs": [],
      "stateMutability": "nonpayable",
      "type": "function"
    },
    {
      "inputs": [
        {
          "internalType": "address",
          "name": "to",
          "type": "address"
        },
        {
          "internalType": "uint256",
          "name": "tokenId",
          "type": "uint256"
        }
      ],
      "name": "approve",
      "outputs": [],
      "stateMutability": "nonpayable",
      "type": "function"
    },
    {
      "inputs": [
        {
          "internalType": "address",
          "name": "owner",
          "type": "address"
        }
      ],
      "name": "balanceOf",
      "outputs": [
        {
          "internalType": "uint256",
          "name": "",
          "type": "uint256"
        }
      ],
      "stateMutability": "view",
      "type": "function"
    },
    {
      "inputs": [],
      "name": "baseURI",
      "outputs": [
        {
          "internalType": "string",
          "name": "",
          "type": "string"
        }
      ],
      "stateMutability": "view",
      "type": "function"
    },
    {
      "inputs": [],
      "name": "devReserve",
      "outputs": [
        {
          "internalType": "uint256",
          "name": "",
          "type": "uint256"
        }
      ],
      "stateMutability": "view",
      "type": "function"
    },
    {
      "inputs": [
        {
          "internalType": "uint256",
          "name": "tokenId",
          "type": "uint256"
        }
      ],
      "name": "getApproved",
      "outputs": [
        {
          "internalType": "address",
          "name": "",
          "type": "address"
        }
      ],
      "stateMutability": "view",
      "type": "function"
    },
    {
      "inputs": [
        {
          "internalType": "address",
          "name": "owner",
          "type": "address"
        },
        {
          "internalType": "address",
          "name": "operator",
          "type": "address"
        }
      ],
      "name": "isApprovedForAll",
      "outputs": [
        {
          "internalType": "bool",
          "name": "",
          "type": "bool"
        }
      ],
      "stateMutability": "view",
      "type": "function"
    },
    {
      "inputs": [],
      "name": "isRevealed",
      "outputs": [
        {
          "internalType": "bool",
          "name": "",
          "type": "bool"
        }
      ],
      "stateMutability": "view",
      "type": "function"
    },
    {
      "inputs": [],
      "name": "maxTokenPurchase",
      "outputs": [
        {
          "internalType": "uint256",
          "name": "",
          "type": "uint256"
        }
      ],
      "stateMutability": "view",
      "type": "function"
    },
    {
      "inputs": [
        {
          "internalType": "uint256",
          "name": "numberOfTokens",
          "type": "uint256"
        }
      ],
      "name": "mintExample",
      "outputs": [],
      "stateMutability": "payable",
      "type": "function"
    },
    {
      "inputs": [],
      "name": "name",
      "outputs": [
        {
          "internalType": "string",
          "name": "",
          "type": "string"
        }
      ],
      "stateMutability": "view",
      "type": "function"
    },
    {
      "inputs": [
        {
          "internalType": "address",
          "name": "addr",
          "type": "address"
        }
      ],
      "name": "onPreSaleList",
      "outputs": [
        {
          "internalType": "bool",
          "name": "",
          "type": "bool"
        }
      ],
      "stateMutability": "view",
      "type": "function"
    },
    {
      "inputs": [],
      "name": "owner",
      "outputs": [
        {
          "internalType": "address",
          "name": "",
          "type": "address"
        }
      ],
      "stateMutability": "view",
      "type": "function"
    },
    {
      "inputs": [
        {
          "internalType": "uint256",
          "name": "tokenId",
          "type": "uint256"
        }
      ],
      "name": "ownerOf",
      "outputs": [
        {
          "internalType": "address",
          "name": "",
          "type": "address"
        }
      ],
      "stateMutability": "view",
      "type": "function"
    },
    {
      "inputs": [
        {
          "internalType": "uint256",
          "name": "numberOfTokens",
          "type": "uint256"
        }
      ],
      "name": "presaleExample",
      "outputs": [],
      "stateMutability": "payable",
      "type": "function"
    },
    {
      "inputs": [],
      "name": "presaleIsActive",
      "outputs": [
        {
          "internalType": "bool",
          "name": "",
          "type": "bool"
        }
      ],
      "stateMutability": "view",
      "type": "function"
    },
    {
      "inputs": [],
      "name": "presaleMaxMint",
      "outputs": [
        {
          "internalType": "uint256",
          "name": "",
          "type": "uint256"
        }
      ],
      "stateMutability": "view",
      "type": "function"
    },
    {
      "inputs": [
        {
          "internalType": "address[]",
          "name": "addresses",
          "type": "address[]"
        }
      ],
      "name": "removeFromPresaleList",
      "outputs": [],
      "stateMutability": "nonpayable",
      "type": "function"
    },
    {
      "inputs": [],
      "name": "renounceOwnership",
      "outputs": [],
      "stateMutability": "nonpayable",
      "type": "function"
    },
    {
      "inputs": [
        {
          "internalType": "address",
          "name": "_to",
          "type": "address"
        },
        {
          "internalType": "uint256",
          "name": "_reserveAmount",
          "type": "uint256"
        }
      ],
      "name": "reserveTokens",
      "outputs": [],
      "stateMutability": "nonpayable",
      "type": "function"
    },
    {
      "inputs": [],
      "name": "reveal",
      "outputs": [],
      "stateMutability": "nonpayable",
      "type": "function"
    },
    {
      "inputs": [
        {
          "internalType": "address",
          "name": "from",
          "type": "address"
        },
        {
          "internalType": "address",
          "name": "to",
          "type": "address"
        },
        {
          "internalType": "uint256",
          "name": "tokenId",
          "type": "uint256"
        }
      ],
      "name": "safeTransferFrom",
      "outputs": [],
      "stateMutability": "nonpayable",
      "type": "function"
    },
    {
      "inputs": [
        {
          "internalType": "address",
          "name": "from",
          "type": "address"
        },
        {
          "internalType": "address",
          "name": "to",
          "type": "address"
        },
        {
          "internalType": "uint256",
          "name": "tokenId",
          "type": "uint256"
        },
        {
          "internalType": "bytes",
          "name": "data",
          "type": "bytes"
        }
      ],
      "name": "safeTransferFrom",
      "outputs": [],
      "stateMutability": "nonpayable",
      "type": "function"
    },
    {
      "inputs": [],
      "name": "saleIsActive",
      "outputs": [
        {
          "internalType": "bool",
          "name": "",
          "type": "bool"
        }
      ],
      "stateMutability": "view",
      "type": "function"
    },
    {
      "inputs": [
        {
          "internalType": "address",
          "name": "operator",
          "type": "address"
        },
        {
          "internalType": "bool",
          "name": "approved",
          "type": "bool"
        }
      ],
      "name": "setApprovalForAll",
      "outputs": [],
      "stateMutability": "nonpayable",
      "type": "function"
    },
    {
      "inputs": [
        {
          "internalType": "string",
          "name": "_newBaseURI",
          "type": "string"
        }
      ],
      "name": "setBaseURI",
      "outputs": [],
      "stateMutability": "nonpayable",
      "type": "function"
    },
    {
      "inputs": [
        {
          "internalType": "uint256",
          "name": "maxMint",
          "type": "uint256"
        }
      ],
      "name": "setPresaleMaxMint",
      "outputs": [],
      "stateMutability": "nonpayable",
      "type": "function"
    },
    {
      "inputs": [
        {
          "internalType": "bytes4",
          "name": "interfaceId",
          "type": "bytes4"
        }
      ],
      "name": "supportsInterface",
      "outputs": [
        {
          "internalType": "bool",
          "name": "",
          "type": "bool"
        }
      ],
      "stateMutability": "view",
      "type": "function"
    },
    {
      "inputs": [],
      "name": "symbol",
      "outputs": [
        {
          "internalType": "string",
          "name": "",
          "type": "string"
        }
      ],
      "stateMutability": "view",
      "type": "function"
    },
    {
      "inputs": [],
      "name": "togglePresaleState",
      "outputs": [],
      "stateMutability": "nonpayable",
      "type": "function"
    },
    {
      "inputs": [],
      "name": "toggleSaleState",
      "outputs": [],
      "stateMutability": "nonpayable",
      "type": "function"
    },
    {
      "inputs": [
        {
          "internalType": "uint256",
          "name": "index",
          "type": "uint256"
        }
      ],
      "name": "tokenByIndex",
      "outputs": [
        {
          "internalType": "uint256",
          "name": "",
          "type": "uint256"
        }
      ],
      "stateMutability": "view",
      "type": "function"
    },
    {
      "inputs": [
        {
          "internalType": "address",
          "name": "owner",
          "type": "address"
        },
        {
          "internalType": "uint256",
          "name": "index",
          "type": "uint256"
        }
      ],
      "name": "tokenOfOwnerByIndex",
      "outputs": [
        {
          "internalType": "uint256",
          "name": "",
          "type": "uint256"
        }
      ],
      "stateMutability": "view",
      "type": "function"
    },
    {
      "inputs": [],
      "name": "tokenPrice",
      "outputs": [
        {
          "internalType": "uint256",
          "name": "",
          "type": "uint256"
        }
      ],
      "stateMutability": "view",
      "type": "function"
    },
    {
      "inputs": [
        {
          "internalType": "uint256",
          "name": "tokenId",
          "type": "uint256"
        }
      ],
      "name": "tokenURI",
      "outputs": [
        {
          "internalType": "string",
          "name": "",
          "type": "string"
        }
      ],
      "stateMutability": "view",
      "type": "function"
    },
    {
      "inputs": [
        {
          "internalType": "address",
          "name": "_owner",
          "type": "address"
        }
      ],
      "name": "tokensOfOwner",
      "outputs": [
        {
          "internalType": "uint256[]",
          "name": "",
          "type": "uint256[]"
        }
      ],
      "stateMutability": "view",
      "type": "function"
    },
    {
      "inputs": [],
      "name": "totalSupply",
      "outputs": [
        {
          "internalType": "uint256",
          "name": "",
          "type": "uint256"
        }
      ],
      "stateMutability": "view",
      "type": "function"
    },
    {
      "inputs": [
        {
          "internalType": "address",
          "name": "from",
          "type": "address"
        },
        {
          "internalType": "address",
          "name": "to",
          "type": "address"
        },
        {
          "internalType": "uint256",
          "name": "tokenId",
          "type": "uint256"
        }
      ],
      "name": "transferFrom",
      "outputs": [],
      "stateMutability": "nonpayable",
      "type": "function"
    },
    {
      "inputs": [
        {
          "internalType": "address",
          "name": "newOwner",
          "type": "address"
        }
      ],
      "name": "transferOwnership",
      "outputs": [],
      "stateMutability": "nonpayable",
      "type": "function"
    },
    {
      "inputs": [],
      "name": "withdraw",
      "outputs": [],
      "stateMutability": "payable",
      "type": "function"
    }
  ],
  "bytecode": "0x608060405260405180602001604052806000815250600b90805190602001906200002b92919062000229565b506000600c60006101000a81548160ff0219169083151502179055506000600c60016101000a81548160ff0219169083151502179055506000600c60026101000a81548160ff0219169083151502179055506002600f5560406010553480156200009457600080fd5b506040518060400160405280600a81526020017f4578616d706c654e6674000000000000000000000000000000000000000000008152506040518060400160405280600281526020017f454e00000000000000000000000000000000000000000000000000000000000081525081600090805190602001906200011992919062000229565b5080600190805190602001906200013292919062000229565b50505062000155620001496200015b60201b60201c565b6200016360201b60201c565b6200033e565b600033905090565b6000600660009054906101000a900473ffffffffffffffffffffffffffffffffffffffff16905081600660006101000a81548173ffffffffffffffffffffffffffffffffffffffff021916908373ffffffffffffffffffffffffffffffffffffffff1602179055508173ffffffffffffffffffffffffffffffffffffffff168173ffffffffffffffffffffffffffffffffffffffff167f8be0079c531659141344cd1fd0a4f28419497f9722a3daafe3b4186f6b6457e060405160405180910390a35050565b8280546200023790620002d9565b90600052602060002090601f0160209004810192826200025b5760008555620002a7565b82601f106200027657805160ff1916838001178555620002a7565b82800160010185558215620002a7579182015b82811115620002a657825182559160200191906001019062000289565b5b509050620002b69190620002ba565b5090565b5b80821115620002d5576000816000905550600101620002bb565b5090565b60006002820490506001821680620002f257607f821691505b602082108114156200030957620003086200030f565b5b50919050565b7f4e487b7100000000000000000000000000000000000000000000000000000000600052602260045260246000fd5b614e35806200034e6000396000f3fe6080604052600436106102465760003560e01c80637204a3c911610139578063b179e060116100b6578063e985e9c51161007a578063e985e9c51461083f578063eb8d24441461087c578063f285e69e146108a7578063f2fde38b146108be578063f47c84c5146108e7578063fcd2a4271461091257610246565b8063b179e06014610770578063b88d4fde14610799578063c87b56dd146107c2578063daaeec86146107ff578063df4305d21461081657610246565b80638da5cb5b116100fd5780638da5cb5b146106af578063946ef42a146106da57806395d89b4114610705578063a22cb46514610730578063a475b5dd1461075957610246565b80637204a3c9146105d957806373b6bf041461060257806378cf19e91461061e5780637ff9b596146106475780638462151c1461067257610246565b806330f72cd4116101c757806355f804b31161018b57806355f804b3146104f45780636352211e1461051d5780636c0360eb1461055a57806370a0823114610585578063715018a6146105c257610246565b806330f72cd41461042e5780633ccfd60b1461045957806342842e0e146104635780634f6ccce71461048c57806354214f69146104c957610246565b80630eba43831161020e5780630eba43831461034457806311576b791461036057806318160ddd1461039d57806323b872dd146103c85780632f745c59146103f157610246565b806301ffc9a71461024b57806306fdde0314610288578063081812fc146102b3578063095ea7b3146102f057806309aa3dcf14610319575b600080fd5b34801561025757600080fd5b50610272600480360381019061026d9190613770565b61093d565b60405161027f9190613e45565b60405180910390f35b34801561029457600080fd5b5061029d61094f565b6040516102aa9190613e60565b60405180910390f35b3480156102bf57600080fd5b506102da60048036038101906102d59190613803565b6109e1565b6040516102e79190613dbc565b60405180910390f35b3480156102fc57600080fd5b50610317600480360381019061031291906136ef565b610a27565b005b34801561032557600080fd5b5061032e610b3f565b60405161033b91906141e2565b60405180910390f35b61035e60048036038101906103599190613803565b610b44565b005b34801561036c57600080fd5b5061038760048036038101906103829190613584565b610d34565b6040516103949190613e45565b60405180910390f35b3480156103a957600080fd5b506103b2610d8a565b6040516103bf91906141e2565b60405180910390f35b3480156103d457600080fd5b506103ef60048036038101906103ea91906135e9565b610d97565b005b3480156103fd57600080fd5b50610418600480360381019061041391906136ef565b610df7565b60405161042591906141e2565b60405180910390f35b34801561043a57600080fd5b50610443610e9c565b6040516104509190613e45565b60405180910390f35b610461610eaf565b005b34801561046f57600080fd5b5061048a600480360381019061048591906135e9565b610f37565b005b34801561049857600080fd5b506104b360048036038101906104ae9190613803565b610f57565b6040516104c091906141e2565b60405180910390f35b3480156104d557600080fd5b506104de610fee565b6040516104eb9190613e45565b60405180910390f35b34801561050057600080fd5b5061051b600480360381019061051691906137c2565b611001565b005b34801561052957600080fd5b50610544600480360381019061053f9190613803565b611023565b6040516105519190613dbc565b60405180910390f35b34801561056657600080fd5b5061056f6110d5565b60405161057c9190613e60565b60405180910390f35b34801561059157600080fd5b506105ac60048036038101906105a79190613584565b611163565b6040516105b991906141e2565b60405180910390f35b3480156105ce57600080fd5b506105d761121b565b005b3480156105e557600080fd5b5061060060048036038101906105fb919061372b565b61122f565b005b61061c60048036038101906106179190613803565b6113bf565b005b34801561062a57600080fd5b50610645600480360381019061064091906136ef565b611729565b005b34801561065357600080fd5b5061065c6117d7565b60405161066991906141e2565b60405180910390f35b34801561067e57600080fd5b5061069960048036038101906106949190613584565b6117e2565b6040516106a69190613e23565b60405180910390f35b3480156106bb57600080fd5b506106c461195e565b6040516106d19190613dbc565b60405180910390f35b3480156106e657600080fd5b506106ef611988565b6040516106fc91906141e2565b60405180910390f35b34801561071157600080fd5b5061071a61198e565b6040516107279190613e60565b60405180910390f35b34801561073c57600080fd5b50610757600480360381019061075291906136b3565b611a20565b005b34801561076557600080fd5b5061076e611a36565b005b34801561077c57600080fd5b506107976004803603810190610792919061372b565b611a5b565b005b3480156107a557600080fd5b506107c060048036038101906107bb9190613638565b611beb565b005b3480156107ce57600080fd5b506107e960048036038101906107e49190613803565b611c4d565b6040516107f69190613e60565b60405180910390f35b34801561080b57600080fd5b50610814611d32565b005b34801561082257600080fd5b5061083d60048036038101906108389190613803565b611d66565b005b34801561084b57600080fd5b50610866600480360381019061086191906135ad565b611d78565b6040516108739190613e45565b60405180910390f35b34801561088857600080fd5b50610891611e0c565b60405161089e9190613e45565b60405180910390f35b3480156108b357600080fd5b506108bc611e1f565b005b3480156108ca57600080fd5b506108e560048036038101906108e09190613584565b611e53565b005b3480156108f357600080fd5b506108fc611ed7565b60405161090991906141e2565b60405180910390f35b34801561091e57600080fd5b50610927611edd565b60405161093491906141e2565b60405180910390f35b600061094882611ee3565b9050919050565b60606000805461095e906144ff565b80601f016020809104026020016040519081016040528092919081815260200182805461098a906144ff565b80156109d75780601f106109ac576101008083540402835291602001916109d7565b820191906000526020600020905b8154815290600101906020018083116109ba57829003601f168201915b5050505050905090565b60006109ec82611f5d565b6004600083815260200190815260200160002060009054906101000a900473ffffffffffffffffffffffffffffffffffffffff169050919050565b6000610a3282611023565b90508073ffffffffffffffffffffffffffffffffffffffff168373ffffffffffffffffffffffffffffffffffffffff161415610aa3576040517f08c379a0000000000000000000000000000000000000000000000000000000008152600401610a9a90614122565b60405180910390fd5b8073ffffffffffffffffffffffffffffffffffffffff16610ac2611fa8565b73ffffffffffffffffffffffffffffffffffffffff161480610af15750610af081610aeb611fa8565b611d78565b5b610b30576040517f08c379a0000000000000000000000000000000000000000000000000000000008152600401610b2790614042565b60405180910390fd5b610b3a8383611fb0565b505050565b600581565b600c60009054906101000a900460ff16610b93576040517f08c379a0000000000000000000000000000000000000000000000000000000008152600401610b8a90613f62565b60405180910390fd5b600081118015610ba4575060058111155b610be3576040517f08c379a0000000000000000000000000000000000000000000000000000000008152600401610bda90613e82565b60405180910390fd5b612710610c0082610bf2610d8a565b61206990919063ffffffff16565b1115610c41576040517f08c379a0000000000000000000000000000000000000000000000000000000008152600401610c3890614022565b60405180910390fd5b610c5b8166470de4df82000061207f90919063ffffffff16565b341015610c9d576040517f08c379a0000000000000000000000000000000000000000000000000000000008152600401610c9490613fe2565b60405180910390fd5b60005b81811015610d30576000610cc56001610cb7610d8a565b61206990919063ffffffff16565b9050612710610cd2610d8a565b1015610d1c57610ce23382612095565b7f63e6dfdc79aeed1171a8d71281f5939145c596439392c0a380463a20bd4e79e08133604051610d139291906141fd565b60405180910390a15b508080610d2890614562565b915050610ca0565b5050565b6000600d60008373ffffffffffffffffffffffffffffffffffffffff1673ffffffffffffffffffffffffffffffffffffffff16815260200190815260200160002060009054906101000a900460ff169050919050565b6000600980549050905090565b610da8610da2611fa8565b826120b3565b610de7576040517f08c379a0000000000000000000000000000000000000000000000000000000008152600401610dde906141a2565b60405180910390fd5b610df2838383612148565b505050565b6000610e0283611163565b8210610e43576040517f08c379a0000000000000000000000000000000000000000000000000000000008152600401610e3a90613ea2565b60405180910390fd5b600760008473ffffffffffffffffffffffffffffffffffffffff1673ffffffffffffffffffffffffffffffffffffffff168152602001908152602001600020600083815260200190815260200160002054905092915050565b600c60019054906101000a900460ff1681565b610eb76123af565b6000610ec161195e565b73ffffffffffffffffffffffffffffffffffffffff1647604051610ee490613da7565b60006040518083038185875af1925050503d8060008114610f21576040519150601f19603f3d011682016040523d82523d6000602084013e610f26565b606091505b5050905080610f3457600080fd5b50565b610f5283838360405180602001604052806000815250611beb565b505050565b6000610f61610d8a565b8210610fa2576040517f08c379a0000000000000000000000000000000000000000000000000000000008152600401610f9990614142565b60405180910390fd5b60098281548110610fdc577f4e487b7100000000000000000000000000000000000000000000000000000000600052603260045260246000fd5b90600052602060002001549050919050565b600c60029054906101000a900460ff1681565b6110096123af565b80600b908051906020019061101f92919061335e565b5050565b6000806002600084815260200190815260200160002060009054906101000a900473ffffffffffffffffffffffffffffffffffffffff169050600073ffffffffffffffffffffffffffffffffffffffff168173ffffffffffffffffffffffffffffffffffffffff1614156110cc576040517f08c379a00000000000000000000000000000000000000000000000000000000081526004016110c390614102565b60405180910390fd5b80915050919050565b600b80546110e2906144ff565b80601f016020809104026020016040519081016040528092919081815260200182805461110e906144ff565b801561115b5780601f106111305761010080835404028352916020019161115b565b820191906000526020600020905b81548152906001019060200180831161113e57829003601f168201915b505050505081565b60008073ffffffffffffffffffffffffffffffffffffffff168273ffffffffffffffffffffffffffffffffffffffff1614156111d4576040517f08c379a00000000000000000000000000000000000000000000000000000000081526004016111cb90614002565b60405180910390fd5b600360008373ffffffffffffffffffffffffffffffffffffffff1673ffffffffffffffffffffffffffffffffffffffff168152602001908152602001600020549050919050565b6112236123af565b61122d600061242d565b565b6112376123af565b60005b828290508110156113ba57600073ffffffffffffffffffffffffffffffffffffffff16838383818110611296577f4e487b7100000000000000000000000000000000000000000000000000000000600052603260045260246000fd5b90506020020160208101906112ab9190613584565b73ffffffffffffffffffffffffffffffffffffffff161415611302576040517f08c379a00000000000000000000000000000000000000000000000000000000081526004016112f9906140a2565b60405180910390fd5b6001600d6000858585818110611341577f4e487b7100000000000000000000000000000000000000000000000000000000600052603260045260246000fd5b90506020020160208101906113569190613584565b73ffffffffffffffffffffffffffffffffffffffff1673ffffffffffffffffffffffffffffffffffffffff16815260200190815260200160002060006101000a81548160ff02191690831515021790555080806113b290614562565b91505061123a565b505050565b600c60019054906101000a900460ff1661140e576040517f08c379a000000000000000000000000000000000000000000000000000000000815260040161140590614162565b60405180910390fd5b600d60003373ffffffffffffffffffffffffffffffffffffffff1673ffffffffffffffffffffffffffffffffffffffff16815260200190815260200160002060009054906101000a900460ff1661149a576040517f08c379a000000000000000000000000000000000000000000000000000000000815260040161149190613f42565b60405180910390fd5b6127106114b7826114a9610d8a565b61206990919063ffffffff16565b11156114f8576040517f08c379a00000000000000000000000000000000000000000000000000000000081526004016114ef906140c2565b60405180910390fd5b60008111801561150a5750600f548111155b611549576040517f08c379a0000000000000000000000000000000000000000000000000000000008152600401611540906141c2565b60405180910390fd5b600f5461159e82600e60003373ffffffffffffffffffffffffffffffffffffffff1673ffffffffffffffffffffffffffffffffffffffff1681526020019081526020016000205461206990919063ffffffff16565b11156115df576040517f08c379a00000000000000000000000000000000000000000000000000000000081526004016115d690614182565b60405180910390fd5b6115f98166470de4df82000061207f90919063ffffffff16565b34101561163b576040517f08c379a000000000000000000000000000000000000000000000000000000000815260040161163290613fe2565b60405180910390fd5b60005b818110156117255760006116636001611655610d8a565b61206990919063ffffffff16565b9050612710611670610d8a565b1015611711576001600e60003373ffffffffffffffffffffffffffffffffffffffff1673ffffffffffffffffffffffffffffffffffffffff16815260200190815260200160002060008282546116c69190614334565b925050819055506116d73382612095565b7f63e6dfdc79aeed1171a8d71281f5939145c596439392c0a380463a20bd4e79e081336040516117089291906141fd565b60405180910390a15b50808061171d90614562565b91505061163e565b5050565b6117316123af565b60008111801561174357506010548111155b611782576040517f08c379a000000000000000000000000000000000000000000000000000000000815260040161177990613f82565b60405180910390fd5b60005b818110156117b7576000611797610d8a565b90506117a38482612095565b5080806117af90614562565b915050611785565b506117cd816010546124f390919063ffffffff16565b6010819055505050565b66470de4df82000081565b606060006117ef83611163565b9050600081141561187257600067ffffffffffffffff81111561183b577f4e487b7100000000000000000000000000000000000000000000000000000000600052604160045260246000fd5b6040519080825280602002602001820160405280156118695781602001602082028036833780820191505090505b50915050611959565b60008167ffffffffffffffff8111156118b4577f4e487b7100000000000000000000000000000000000000000000000000000000600052604160045260246000fd5b6040519080825280602002602001820160405280156118e25781602001602082028036833780820191505090505b50905060005b82811015611952576118fa8582610df7565b828281518110611933577f4e487b7100000000000000000000000000000000000000000000000000000000600052603260045260246000fd5b602002602001018181525050808061194a90614562565b9150506118e8565b8193505050505b919050565b6000600660009054906101000a900473ffffffffffffffffffffffffffffffffffffffff16905090565b600f5481565b60606001805461199d906144ff565b80601f01602080910402602001604051908101604052809291908181526020018280546119c9906144ff565b8015611a165780601f106119eb57610100808354040283529160200191611a16565b820191906000526020600020905b8154815290600101906020018083116119f957829003601f168201915b5050505050905090565b611a32611a2b611fa8565b8383612509565b5050565b611a3e6123af565b6001600c60026101000a81548160ff021916908315150217905550565b611a636123af565b60005b82829050811015611be657600073ffffffffffffffffffffffffffffffffffffffff16838383818110611ac2577f4e487b7100000000000000000000000000000000000000000000000000000000600052603260045260246000fd5b9050602002016020810190611ad79190613584565b73ffffffffffffffffffffffffffffffffffffffff161415611b2e576040517f08c379a0000000000000000000000000000000000000000000000000000000008152600401611b25906140a2565b60405180910390fd5b6000600d6000858585818110611b6d577f4e487b7100000000000000000000000000000000000000000000000000000000600052603260045260246000fd5b9050602002016020810190611b829190613584565b73ffffffffffffffffffffffffffffffffffffffff1673ffffffffffffffffffffffffffffffffffffffff16815260200190815260200160002060006101000a81548160ff0219169083151502179055508080611bde90614562565b915050611a66565b505050565b611bfc611bf6611fa8565b836120b3565b611c3b576040517f08c379a0000000000000000000000000000000000000000000000000000000008152600401611c32906141a2565b60405180910390fd5b611c4784848484612676565b50505050565b6060611c58826126d2565b611c97576040517f08c379a0000000000000000000000000000000000000000000000000000000008152600401611c8e906140e2565b60405180910390fd5b6000611ca161273e565b905060001515600c60029054906101000a900460ff1615151415611ce057604051806080016040528060418152602001614dbf60419139915050611d2d565b6000815111611cfe5760405180602001604052806000815250611d29565b80611d08846127d0565b604051602001611d19929190613d78565b6040516020818303038152906040525b9150505b919050565b611d3a6123af565b600c60009054906101000a900460ff1615600c60006101000a81548160ff021916908315150217905550565b611d6e6123af565b80600f8190555050565b6000600560008473ffffffffffffffffffffffffffffffffffffffff1673ffffffffffffffffffffffffffffffffffffffff16815260200190815260200160002060008373ffffffffffffffffffffffffffffffffffffffff1673ffffffffffffffffffffffffffffffffffffffff16815260200190815260200160002060009054906101000a900460ff16905092915050565b600c60009054906101000a900460ff1681565b611e276123af565b600c60019054906101000a900460ff1615600c60016101000a81548160ff021916908315150217905550565b611e5b6123af565b600073ffffffffffffffffffffffffffffffffffffffff168173ffffffffffffffffffffffffffffffffffffffff161415611ecb576040517f08c379a0000000000000000000000000000000000000000000000000000000008152600401611ec290613ee2565b60405180910390fd5b611ed48161242d565b50565b61271081565b60105481565b60007f780e9d63000000000000000000000000000000000000000000000000000000007bffffffffffffffffffffffffffffffffffffffffffffffffffffffff1916827bffffffffffffffffffffffffffffffffffffffffffffffffffffffff19161480611f565750611f558261297d565b5b9050919050565b611f66816126d2565b611fa5576040517f08c379a0000000000000000000000000000000000000000000000000000000008152600401611f9c90614102565b60405180910390fd5b50565b600033905090565b816004600083815260200190815260200160002060006101000a81548173ffffffffffffffffffffffffffffffffffffffff021916908373ffffffffffffffffffffffffffffffffffffffff160217905550808273ffffffffffffffffffffffffffffffffffffffff1661202383611023565b73ffffffffffffffffffffffffffffffffffffffff167f8c5be1e5ebec7d5bd14f71427d1e84f3dd0314c0f7b2291e5b200ac8c7c3b92560405160405180910390a45050565b600081836120779190614334565b905092915050565b6000818361208d91906143bb565b905092915050565b6120af828260405180602001604052806000815250612a5f565b5050565b6000806120bf83611023565b90508073ffffffffffffffffffffffffffffffffffffffff168473ffffffffffffffffffffffffffffffffffffffff16148061210157506121008185611d78565b5b8061213f57508373ffffffffffffffffffffffffffffffffffffffff16612127846109e1565b73ffffffffffffffffffffffffffffffffffffffff16145b91505092915050565b8273ffffffffffffffffffffffffffffffffffffffff1661216882611023565b73ffffffffffffffffffffffffffffffffffffffff16146121be576040517f08c379a00000000000000000000000000000000000000000000000000000000081526004016121b590613f02565b60405180910390fd5b600073ffffffffffffffffffffffffffffffffffffffff168273ffffffffffffffffffffffffffffffffffffffff16141561222e576040517f08c379a000000000000000000000000000000000000000000000000000000000815260040161222590613fa2565b60405180910390fd5b612239838383612aba565b612244600082611fb0565b6001600360008573ffffffffffffffffffffffffffffffffffffffff1673ffffffffffffffffffffffffffffffffffffffff16815260200190815260200160002060008282546122949190614415565b925050819055506001600360008473ffffffffffffffffffffffffffffffffffffffff1673ffffffffffffffffffffffffffffffffffffffff16815260200190815260200160002060008282546122eb9190614334565b92505081905550816002600083815260200190815260200160002060006101000a81548173ffffffffffffffffffffffffffffffffffffffff021916908373ffffffffffffffffffffffffffffffffffffffff160217905550808273ffffffffffffffffffffffffffffffffffffffff168473ffffffffffffffffffffffffffffffffffffffff167fddf252ad1be2c89b69c2b068fc378daa952ba7f163c4a11628f55a4df523b3ef60405160405180910390a46123aa838383612aca565b505050565b6123b7611fa8565b73ffffffffffffffffffffffffffffffffffffffff166123d561195e565b73ffffffffffffffffffffffffffffffffffffffff161461242b576040517f08c379a000000000000000000000000000000000000000000000000000000000815260040161242290614082565b60405180910390fd5b565b6000600660009054906101000a900473ffffffffffffffffffffffffffffffffffffffff16905081600660006101000a81548173ffffffffffffffffffffffffffffffffffffffff021916908373ffffffffffffffffffffffffffffffffffffffff1602179055508173ffffffffffffffffffffffffffffffffffffffff168173ffffffffffffffffffffffffffffffffffffffff167f8be0079c531659141344cd1fd0a4f28419497f9722a3daafe3b4186f6b6457e060405160405180910390a35050565b600081836125019190614415565b905092915050565b8173ffffffffffffffffffffffffffffffffffffffff168373ffffffffffffffffffffffffffffffffffffffff161415612578576040517f08c379a000000000000000000000000000000000000000000000000000000000815260040161256f90613fc2565b60405180910390fd5b80600560008573ffffffffffffffffffffffffffffffffffffffff1673ffffffffffffffffffffffffffffffffffffffff16815260200190815260200160002060008473ffffffffffffffffffffffffffffffffffffffff1673ffffffffffffffffffffffffffffffffffffffff16815260200190815260200160002060006101000a81548160ff0219169083151502179055508173ffffffffffffffffffffffffffffffffffffffff168373ffffffffffffffffffffffffffffffffffffffff167f17307eab39ab6107e8899845ad3d59bd9653f200f220920489ca2b5937696c31836040516126699190613e45565b60405180910390a3505050565b612681848484612148565b61268d84848484612acf565b6126cc576040517f08c379a00000000000000000000000000000000000000000000000000000000081526004016126c390613ec2565b60405180910390fd5b50505050565b60008073ffffffffffffffffffffffffffffffffffffffff166002600084815260200190815260200160002060009054906101000a900473ffffffffffffffffffffffffffffffffffffffff1673ffffffffffffffffffffffffffffffffffffffff1614159050919050565b6060600b805461274d906144ff565b80601f0160208091040260200160405190810160405280929190818152602001828054612779906144ff565b80156127c65780601f1061279b576101008083540402835291602001916127c6565b820191906000526020600020905b8154815290600101906020018083116127a957829003601f168201915b5050505050905090565b60606000821415612818576040518060400160405280600181526020017f30000000000000000000000000000000000000000000000000000000000000008152509050612978565b600082905060005b6000821461284a57808061283390614562565b915050600a82612843919061438a565b9150612820565b60008167ffffffffffffffff81111561288c577f4e487b7100000000000000000000000000000000000000000000000000000000600052604160045260246000fd5b6040519080825280601f01601f1916602001820160405280156128be5781602001600182028036833780820191505090505b5090505b60008514612971576001826128d79190614415565b9150600a856128e691906145ab565b60306128f29190614334565b60f81b81838151811061292e577f4e487b7100000000000000000000000000000000000000000000000000000000600052603260045260246000fd5b60200101907effffffffffffffffffffffffffffffffffffffffffffffffffffffffffffff1916908160001a905350600a8561296a919061438a565b94506128c2565b8093505050505b919050565b60007f80ac58cd000000000000000000000000000000000000000000000000000000007bffffffffffffffffffffffffffffffffffffffffffffffffffffffff1916827bffffffffffffffffffffffffffffffffffffffffffffffffffffffff19161480612a4857507f5b5e139f000000000000000000000000000000000000000000000000000000007bffffffffffffffffffffffffffffffffffffffffffffffffffffffff1916827bffffffffffffffffffffffffffffffffffffffffffffffffffffffff1916145b80612a585750612a5782612c66565b5b9050919050565b612a698383612cd0565b612a766000848484612acf565b612ab5576040517f08c379a0000000000000000000000000000000000000000000000000000000008152600401612aac90613ec2565b60405180910390fd5b505050565b612ac5838383612eaa565b505050565b505050565b6000612af08473ffffffffffffffffffffffffffffffffffffffff16612fbe565b15612c59578373ffffffffffffffffffffffffffffffffffffffff1663150b7a02612b19611fa8565b8786866040518563ffffffff1660e01b8152600401612b3b9493929190613dd7565b602060405180830381600087803b158015612b5557600080fd5b505af1925050508015612b8657506040513d601f19601f82011682018060405250810190612b839190613799565b60015b612c09573d8060008114612bb6576040519150601f19603f3d011682016040523d82523d6000602084013e612bbb565b606091505b50600081511415612c01576040517f08c379a0000000000000000000000000000000000000000000000000000000008152600401612bf890613ec2565b60405180910390fd5b805181602001fd5b63150b7a0260e01b7bffffffffffffffffffffffffffffffffffffffffffffffffffffffff1916817bffffffffffffffffffffffffffffffffffffffffffffffffffffffff191614915050612c5e565b600190505b949350505050565b60007f01ffc9a7000000000000000000000000000000000000000000000000000000007bffffffffffffffffffffffffffffffffffffffffffffffffffffffff1916827bffffffffffffffffffffffffffffffffffffffffffffffffffffffff1916149050919050565b600073ffffffffffffffffffffffffffffffffffffffff168273ffffffffffffffffffffffffffffffffffffffff161415612d40576040517f08c379a0000000000000000000000000000000000000000000000000000000008152600401612d3790614062565b60405180910390fd5b612d49816126d2565b15612d89576040517f08c379a0000000000000000000000000000000000000000000000000000000008152600401612d8090613f22565b60405180910390fd5b612d9560008383612aba565b6001600360008473ffffffffffffffffffffffffffffffffffffffff1673ffffffffffffffffffffffffffffffffffffffff1681526020019081526020016000206000828254612de59190614334565b92505081905550816002600083815260200190815260200160002060006101000a81548173ffffffffffffffffffffffffffffffffffffffff021916908373ffffffffffffffffffffffffffffffffffffffff160217905550808273ffffffffffffffffffffffffffffffffffffffff16600073ffffffffffffffffffffffffffffffffffffffff167fddf252ad1be2c89b69c2b068fc378daa952ba7f163c4a11628f55a4df523b3ef60405160405180910390a4612ea660008383612aca565b5050565b612eb5838383612fe1565b600073ffffffffffffffffffffffffffffffffffffffff168373ffffffffffffffffffffffffffffffffffffffff161415612ef857612ef381612fe6565b612f37565b8173ffffffffffffffffffffffffffffffffffffffff168373ffffffffffffffffffffffffffffffffffffffff1614612f3657612f35838261302f565b5b5b600073ffffffffffffffffffffffffffffffffffffffff168273ffffffffffffffffffffffffffffffffffffffff161415612f7a57612f758161319c565b612fb9565b8273ffffffffffffffffffffffffffffffffffffffff168273ffffffffffffffffffffffffffffffffffffffff1614612fb857612fb782826132df565b5b5b505050565b6000808273ffffffffffffffffffffffffffffffffffffffff163b119050919050565b505050565b600980549050600a600083815260200190815260200160002081905550600981908060018154018082558091505060019003906000526020600020016000909190919091505550565b6000600161303c84611163565b6130469190614415565b905060006008600084815260200190815260200160002054905081811461312b576000600760008673ffffffffffffffffffffffffffffffffffffffff1673ffffffffffffffffffffffffffffffffffffffff168152602001908152602001600020600084815260200190815260200160002054905080600760008773ffffffffffffffffffffffffffffffffffffffff1673ffffffffffffffffffffffffffffffffffffffff168152602001908152602001600020600084815260200190815260200160002081905550816008600083815260200190815260200160002081905550505b6008600084815260200190815260200160002060009055600760008573ffffffffffffffffffffffffffffffffffffffff1673ffffffffffffffffffffffffffffffffffffffff16815260200190815260200160002060008381526020019081526020016000206000905550505050565b600060016009805490506131b09190614415565b90506000600a6000848152602001908152602001600020549050600060098381548110613206577f4e487b7100000000000000000000000000000000000000000000000000000000600052603260045260246000fd5b90600052602060002001549050806009838154811061324e577f4e487b7100000000000000000000000000000000000000000000000000000000600052603260045260246000fd5b906000526020600020018190555081600a600083815260200190815260200160002081905550600a60008581526020019081526020016000206000905560098054806132c3577f4e487b7100000000000000000000000000000000000000000000000000000000600052603160045260246000fd5b6001900381819060005260206000200160009055905550505050565b60006132ea83611163565b905081600760008573ffffffffffffffffffffffffffffffffffffffff1673ffffffffffffffffffffffffffffffffffffffff168152602001908152602001600020600083815260200190815260200160002081905550806008600084815260200190815260200160002081905550505050565b82805461336a906144ff565b90600052602060002090601f01602090048101928261338c57600085556133d3565b82601f106133a557805160ff19168380011785556133d3565b828001600101855582156133d3579182015b828111156133d25782518255916020019190600101906133b7565b5b5090506133e091906133e4565b5090565b5b808211156133fd5760008160009055506001016133e5565b5090565b600061341461340f8461424b565b614226565b90508281526020810184848401111561342c57600080fd5b6134378482856144bd565b509392505050565b600061345261344d8461427c565b614226565b90508281526020810184848401111561346a57600080fd5b6134758482856144bd565b509392505050565b60008135905061348c81614d62565b92915050565b60008083601f8401126134a457600080fd5b8235905067ffffffffffffffff8111156134bd57600080fd5b6020830191508360208202830111156134d557600080fd5b9250929050565b6000813590506134eb81614d79565b92915050565b60008135905061350081614d90565b92915050565b60008151905061351581614d90565b92915050565b600082601f83011261352c57600080fd5b813561353c848260208601613401565b91505092915050565b600082601f83011261355657600080fd5b813561356684826020860161343f565b91505092915050565b60008135905061357e81614da7565b92915050565b60006020828403121561359657600080fd5b60006135a48482850161347d565b91505092915050565b600080604083850312156135c057600080fd5b60006135ce8582860161347d565b92505060206135df8582860161347d565b9150509250929050565b6000806000606084860312156135fe57600080fd5b600061360c8682870161347d565b935050602061361d8682870161347d565b925050604061362e8682870161356f565b9150509250925092565b6000806000806080858703121561364e57600080fd5b600061365c8782880161347d565b945050602061366d8782880161347d565b935050604061367e8782880161356f565b925050606085013567ffffffffffffffff81111561369b57600080fd5b6136a78782880161351b565b91505092959194509250565b600080604083850312156136c657600080fd5b60006136d48582860161347d565b92505060206136e5858286016134dc565b9150509250929050565b6000806040838503121561370257600080fd5b60006137108582860161347d565b92505060206137218582860161356f565b9150509250929050565b6000806020838503121561373e57600080fd5b600083013567ffffffffffffffff81111561375857600080fd5b61376485828601613492565b92509250509250929050565b60006020828403121561378257600080fd5b6000613790848285016134f1565b91505092915050565b6000602082840312156137ab57600080fd5b60006137b984828501613506565b91505092915050565b6000602082840312156137d457600080fd5b600082013567ffffffffffffffff8111156137ee57600080fd5b6137fa84828501613545565b91505092915050565b60006020828403121561381557600080fd5b60006138238482850161356f565b91505092915050565b60006138388383613d5a565b60208301905092915050565b61384d81614449565b82525050565b600061385e826142bd565b61386881856142eb565b9350613873836142ad565b8060005b838110156138a457815161388b888261382c565b9750613896836142de565b925050600181019050613877565b5085935050505092915050565b6138ba8161445b565b82525050565b60006138cb826142c8565b6138d581856142fc565b93506138e58185602086016144cc565b6138ee81614698565b840191505092915050565b6000613904826142d3565b61390e8185614318565b935061391e8185602086016144cc565b61392781614698565b840191505092915050565b600061393d826142d3565b6139478185614329565b93506139578185602086016144cc565b80840191505092915050565b6000613970602a83614318565b915061397b826146a9565b604082019050919050565b6000613993602b83614318565b915061399e826146f8565b604082019050919050565b60006139b6603283614318565b91506139c182614747565b604082019050919050565b60006139d9602683614318565b91506139e482614796565b604082019050919050565b60006139fc602583614318565b9150613a07826147e5565b604082019050919050565b6000613a1f601c83614318565b9150613a2a82614834565b602082019050919050565b6000613a42601f83614318565b9150613a4d8261485d565b602082019050919050565b6000613a65602183614318565b9150613a7082614886565b604082019050919050565b6000613a88602083614318565b9150613a93826148d5565b602082019050919050565b6000613aab602483614318565b9150613ab6826148fe565b604082019050919050565b6000613ace601983614318565b9150613ad98261494d565b602082019050919050565b6000613af1601f83614318565b9150613afc82614976565b602082019050919050565b6000613b14602983614318565b9150613b1f8261499f565b604082019050919050565b6000613b37602a83614318565b9150613b42826149ee565b604082019050919050565b6000613b5a603e83614318565b9150613b6582614a3d565b604082019050919050565b6000613b7d602083614318565b9150613b8882614a8c565b602082019050919050565b6000613ba0600583614329565b9150613bab82614ab5565b600582019050919050565b6000613bc3602083614318565b9150613bce82614ade565b602082019050919050565b6000613be6601a83614318565b9150613bf182614b07565b602082019050919050565b6000613c09602983614318565b9150613c1482614b30565b604082019050919050565b6000613c2c602f83614318565b9150613c3782614b7f565b604082019050919050565b6000613c4f601883614318565b9150613c5a82614bce565b602082019050919050565b6000613c72602183614318565b9150613c7d82614bf7565b604082019050919050565b6000613c9560008361430d565b9150613ca082614c46565b600082019050919050565b6000613cb8602c83614318565b9150613cc382614c49565b604082019050919050565b6000613cdb601583614318565b9150613ce682614c98565b602082019050919050565b6000613cfe601c83614318565b9150613d0982614cc1565b602082019050919050565b6000613d21602e83614318565b9150613d2c82614cea565b604082019050919050565b6000613d44602083614318565b9150613d4f82614d39565b602082019050919050565b613d63816144b3565b82525050565b613d72816144b3565b82525050565b6000613d848285613932565b9150613d908284613932565b9150613d9b82613b93565b91508190509392505050565b6000613db282613c88565b9150819050919050565b6000602082019050613dd16000830184613844565b92915050565b6000608082019050613dec6000830187613844565b613df96020830186613844565b613e066040830185613d69565b8181036060830152613e1881846138c0565b905095945050505050565b60006020820190508181036000830152613e3d8184613853565b905092915050565b6000602082019050613e5a60008301846138b1565b92915050565b60006020820190508181036000830152613e7a81846138f9565b905092915050565b60006020820190508181036000830152613e9b81613963565b9050919050565b60006020820190508181036000830152613ebb81613986565b9050919050565b60006020820190508181036000830152613edb816139a9565b9050919050565b60006020820190508181036000830152613efb816139cc565b9050919050565b60006020820190508181036000830152613f1b816139ef565b9050919050565b60006020820190508181036000830152613f3b81613a12565b9050919050565b60006020820190508181036000830152613f5b81613a35565b9050919050565b60006020820190508181036000830152613f7b81613a58565b9050919050565b60006020820190508181036000830152613f9b81613a7b565b9050919050565b60006020820190508181036000830152613fbb81613a9e565b9050919050565b60006020820190508181036000830152613fdb81613ac1565b9050919050565b60006020820190508181036000830152613ffb81613ae4565b9050919050565b6000602082019050818103600083015261401b81613b07565b9050919050565b6000602082019050818103600083015261403b81613b2a565b9050919050565b6000602082019050818103600083015261405b81613b4d565b9050919050565b6000602082019050818103600083015261407b81613b70565b9050919050565b6000602082019050818103600083015261409b81613bb6565b9050919050565b600060208201905081810360008301526140bb81613bd9565b9050919050565b600060208201905081810360008301526140db81613bfc565b9050919050565b600060208201905081810360008301526140fb81613c1f565b9050919050565b6000602082019050818103600083015261411b81613c42565b9050919050565b6000602082019050818103600083015261413b81613c65565b9050919050565b6000602082019050818103600083015261415b81613cab565b9050919050565b6000602082019050818103600083015261417b81613cce565b9050919050565b6000602082019050818103600083015261419b81613cf1565b9050919050565b600060208201905081810360008301526141bb81613d14565b9050919050565b600060208201905081810360008301526141db81613d37565b9050919050565b60006020820190506141f76000830184613d69565b92915050565b60006040820190506142126000830185613d69565b61421f6020830184613844565b9392505050565b6000614230614241565b905061423c8282614531565b919050565b6000604051905090565b600067ffffffffffffffff82111561426657614265614669565b5b61426f82614698565b9050602081019050919050565b600067ffffffffffffffff82111561429757614296614669565b5b6142a082614698565b9050602081019050919050565b6000819050602082019050919050565b600081519050919050565b600081519050919050565b600081519050919050565b6000602082019050919050565b600082825260208201905092915050565b600082825260208201905092915050565b600081905092915050565b600082825260208201905092915050565b600081905092915050565b600061433f826144b3565b915061434a836144b3565b9250827fffffffffffffffffffffffffffffffffffffffffffffffffffffffffffffffff0382111561437f5761437e6145dc565b5b828201905092915050565b6000614395826144b3565b91506143a0836144b3565b9250826143b0576143af61460b565b5b828204905092915050565b60006143c6826144b3565b91506143d1836144b3565b9250817fffffffffffffffffffffffffffffffffffffffffffffffffffffffffffffffff048311821515161561440a576144096145dc565b5b828202905092915050565b6000614420826144b3565b915061442b836144b3565b92508282101561443e5761443d6145dc565b5b828203905092915050565b600061445482614493565b9050919050565b60008115159050919050565b60007fffffffff0000000000000000000000000000000000000000000000000000000082169050919050565b600073ffffffffffffffffffffffffffffffffffffffff82169050919050565b6000819050919050565b82818337600083830152505050565b60005b838110156144ea5780820151818401526020810190506144cf565b838111156144f9576000848401525b50505050565b6000600282049050600182168061451757607f821691505b6020821081141561452b5761452a61463a565b5b50919050565b61453a82614698565b810181811067ffffffffffffffff8211171561455957614558614669565b5b80604052505050565b600061456d826144b3565b91507fffffffffffffffffffffffffffffffffffffffffffffffffffffffffffffffff8214156145a05761459f6145dc565b5b600182019050919050565b60006145b6826144b3565b91506145c1836144b3565b9250826145d1576145d061460b565b5b828206905092915050565b7f4e487b7100000000000000000000000000000000000000000000000000000000600052601160045260246000fd5b7f4e487b7100000000000000000000000000000000000000000000000000000000600052601260045260246000fd5b7f4e487b7100000000000000000000000000000000000000000000000000000000600052602260045260246000fd5b7f4e487b7100000000000000000000000000000000000000000000000000000000600052604160045260246000fd5b6000601f19601f8301169050919050565b7f43616e206f6e6c79206d696e74206f6e65206f72206d6f726520746f6b656e7360008201527f20617420612074696d6500000000000000000000000000000000000000000000602082015250565b7f455243373231456e756d657261626c653a206f776e657220696e646578206f7560008201527f74206f6620626f756e6473000000000000000000000000000000000000000000602082015250565b7f4552433732313a207472616e7366657220746f206e6f6e20455243373231526560008201527f63656976657220696d706c656d656e7465720000000000000000000000000000602082015250565b7f4f776e61626c653a206e6577206f776e657220697320746865207a65726f206160008201527f6464726573730000000000000000000000000000000000000000000000000000602082015250565b7f4552433732313a207472616e736665722066726f6d20696e636f72726563742060008201527f6f776e6572000000000000000000000000000000000000000000000000000000602082015250565b7f4552433732313a20746f6b656e20616c7265616479206d696e74656400000000600082015250565b7f596f7520617265206e6f74206f6e207468652050726573616c65204c69737400600082015250565b7f53616c65206d7573742062652061637469766520746f206d696e7420546f6b6560008201527f6e00000000000000000000000000000000000000000000000000000000000000602082015250565b7f4e6f7420656e6f7567682072657365727665206c65667420666f72207465616d600082015250565b7f4552433732313a207472616e7366657220746f20746865207a65726f2061646460008201527f7265737300000000000000000000000000000000000000000000000000000000602082015250565b7f4552433732313a20617070726f766520746f2063616c6c657200000000000000600082015250565b7f45746865722076616c75652073656e74206973206e6f7420636f727265637400600082015250565b7f4552433732313a2061646472657373207a65726f206973206e6f74206120766160008201527f6c6964206f776e65720000000000000000000000000000000000000000000000602082015250565b7f507572636861736520776f756c6420657863656564206d617820737570706c7960008201527f206f6620746f6b656e7300000000000000000000000000000000000000000000602082015250565b7f4552433732313a20617070726f76652063616c6c6572206973206e6f7420746f60008201527f6b656e206f776e6572206e6f7220617070726f76656420666f7220616c6c0000602082015250565b7f4552433732313a206d696e7420746f20746865207a65726f2061646472657373600082015250565b7f2e6a736f6e000000000000000000000000000000000000000000000000000000600082015250565b7f4f776e61626c653a2063616c6c6572206973206e6f7420746865206f776e6572600082015250565b7f43616e27742061646420746865206e756c6c2061646472657373000000000000600082015250565b7f507572636861736520776f756c6420657863656564206d617820737570706c7960008201527f206f6620746f6b656e0000000000000000000000000000000000000000000000602082015250565b7f4552433732314d657461646174613a2055524920717565727920666f72206e6f60008201527f6e6578697374656e7420746f6b656e0000000000000000000000000000000000602082015250565b7f4552433732313a20696e76616c696420746f6b656e2049440000000000000000600082015250565b7f4552433732313a20617070726f76616c20746f2063757272656e74206f776e6560008201527f7200000000000000000000000000000000000000000000000000000000000000602082015250565b50565b7f455243373231456e756d657261626c653a20676c6f62616c20696e646578206f60008201527f7574206f6620626f756e64730000000000000000000000000000000000000000602082015250565b7f50726573616c65206973206e6f74206163746976650000000000000000000000600082015250565b7f50757263686173652065786365656473206d617820616c6c6f77656400000000600082015250565b7f4552433732313a2063616c6c6572206973206e6f7420746f6b656e206f776e6560008201527f72206e6f7220617070726f766564000000000000000000000000000000000000602082015250565b7f43616e6e6f742070757263686173652074686973206d616e7920746f6b656e73600082015250565b614d6b81614449565b8114614d7657600080fd5b50565b614d828161445b565b8114614d8d57600080fd5b50565b614d9981614467565b8114614da457600080fd5b50565b614db0816144b3565b8114614dbb57600080fd5b5056fe697066733a2f2f516d6652725752683159675553676d6148334c4a41556e37706e69514b3142484b7051566231755a4671386f634d2f68696464656e2e6a736f6ea2646970667358221220926f606457197c5bfaf4fc536c32faac524298119fa9146c9aa639eb752c73dd64736f6c63430008040033",
  "linkReferences": {},
  "deployedLinkReferences": {}
}